:020000040800F2
:100000000050002049BF00088DBF00088DBF0008C8
:100010008DBF00088DBF00088DBF000800000000E4
:100020000000000000000000000000008DBF00087C
:100030008DBF0008000000008DBF00085D110008A2
:100040008DBF00088DBF00088DBF00088DBF000860
:100050008DBF00088DBF00088DBF00088DBF000850
:100060008DBF00088DBF00088DBF00088DBF000840
:100070002D9700088DBF00088DBF00088DBF0008B8
:100080008DBF00088DBF00088DBF00088DBF000820
:100090008DBF00088DBF00088DBF00088DBF000810
:1000A0008DBF00088DBF00088DBF00088DBF000800
:1000B000156800088DBF00088DBF00088DBF0008BF
:1000C0008DBF00088DBF00088DBF00088DBF0008E0
:1000D0008DBF000885650008E95100085D13000820
:1000E0008DBF00088DBF00088DBF00080000000014
:1000F0000000000000000000000000000000000000
:0C01000000000000000000005FF808F1A3
:10010C0010B5054C237833B9044B13B10448AFF345
:10011C0000800123237010BD7C0200200000000031
:10012C00C0CC000808B5034B1BB103490348AFF31F
:10013C00008008BD0000000080020020C0CC000838
:10014C007BB972B90029BEBF00204FF0004106E018
:10015C0008BF00281CBF6FF000414FF0FF3000F0CB
:10016C00A1B9ADF1080C6DE904CE002909DB002B17
:10017C001ADB00F035F8DDF804E0DDE9022304B009
:10018C007047404261EB4101002B1BDB00F028F86B
:10019C00DDF804E0DDE9022304B0404261EB4101EB
:1001AC00524263EB43037047524263EB430300F04C
:1001BC0017F8DDF804E0DDE9022304B0404261EBFE
:1001CC0041017047524263EB430300F009F8DDF83C
:1001DC0004E0DDE9022304B0524263EB43037047B1
:1001EC002DE9F047089E0D4604468E46002B40F044
:1001FC0083808A42174647D9B2FA82F34BB1C3F1D6
:10020C00200105FA03FE20FA01F19F4041EA0E0E8F
:10021C009C404FEA1748BEFBF8FC1FFA87F908FB15
:10022C001CE20CFB09F0210C41EA024290420AD973
:10023C00BA180CF1FF3180F01881904240F2158110
:10024C00ACF1020C3A44121AB2FBF8F008FB102283
:10025C0000FB09F1A4B244EA0244A14209D93C19B9
:10026C0000F1FF3280F00381A14240F2008102389C
:10027C003C44641A002140EA0C401EB10022DC40D0
:10028C00C6E90042BDE8F08702B9FFDEB2FA82F39C
:10029C00002B4FD18D1A01214FEA124E1FFA82F812
:1002AC00B5FBFEFC0EFB1C5508FB0CF0220C42EAC5
:1002BC000545A84207D97D190CF1FF3202D2A8429C
:1002CC0000F2E98094462D1AB5FBFEF00EFB10559A
:1002DC0008FB00F8A4B244EA0544A04507D93C1930
:1002EC0000F1FF3202D2A04500F2D9801046A4EBF7
:1002FC00080440EA0C40C0E78B4208D9002E00F0FD
:10030C00B1800021C6E900050846BDE8F087B3FAC4
:10031C0083F100294BD1AB4202D3824200F2B98067
:10032C00841A65EB030301209E46002EAAD0C6E971
:10033C00004EA7E79F40C3F12002D1404FEA174E71
:10034C00B1FBFEF01FFA87F80EFB101124FA02F233
:10035C009D4000FB08FC2A43150C45EA0145AC45C1
:10036C0004FA03F409D97D1900F1FF3180F08F8074
:10037C00AC4540F28C8002383D44A5EB0C05B5FB36
:10038C00FEF10EFB115C01FB08F995B245EA0C4538
:10039C00A94507D97D1901F1FF3274D2A94572D94B
:1003AC0002393D44A5EB090541EA004178E7C1F16A
:1003BC0020078B4022FA07FC4CEA030C25FA07F4C1
:1003CC004FEA1C4EB4FBFEF91FFA8CF80EFB1944D5
:1003DC0020FA07F309FB08FA8D401D432B0C43EA66
:1003EC000444A24502FA01F200FA01F309D91CEB0C
:1003FC00040409F1FF3048D2A24546D9A9F10209FB
:10040C006444A4EB0A04B4FBFEF00EFB104400FBA6
:10041C0008FAADB245EA0444A24508D91CEB040421
:10042C0000F1FF352DD2A2452BD90238644440EAA5
:10043C000940A0FB0289A4EB0A044C45C6464D4674
:10044C0019D316D05EB1B3EB0E0264EB050404FABB
:10045C0007F722FA01F31F43CC40C6E900740021D0
:10046C00BDE8F087314630460CE78C46EBE610468B
:10047C00FFE64345E6D2B8EB020E69EB0C050138FA
:10048C00E0E72846D3E711468CE78146B9E70846F2
:10049C0073E7084649E7ACF1020C3D4413E7023818
:1004AC003C4424E7704700BF10F8012B11F8013BC6
:1004BC00012A28BF9A42F7D0D01A7047034613F886
:1004CC00012B002AFBD1181A0138704770B5294E40
:1004DC0086B03468002C48D101A80BF047F84FF4D3
:1004EC0000400BF015FB012105200BF069FB684661
:1004FC000BF0DBF9202369461F48ADF800308DF86E
:10050C0003400BF085F901214FF400700BF058FB00
:10051C0001254FF46023194801A9CDE90334019456
:10052C00ADF808408DF814500AF0FCFF23462A461B
:10053C00052112480BF046F8294610480BF01EF81E
:10054C000E480BF024F80D4C20460BF025F8002833
:10055C00FAD10A480BF024F8084C20460BF025F889
:10056C000028FAD10122064B1A600123336006B031
:10057C0070BD00BF9802002000080140002401401B
:10058C001C1E002008B5012103480BF012F80122B3
:10059C00024B1A6008BD00BF002401409C020020E1
:1005AC0038B50A4D04462B680BB9002038BD022122
:1005BC0007480BF051F80028F7D005480BF049F824
:1005CC00002320802B600120F0E700BF9C0200205C
:1005DC000024014070B5114B86B01868E0B16B4631
:1005EC00002419463C250E4A106856681870B6FB54
:1005FC00F5F0587005FB10600134082C987002F16E
:10060C00080203F10303EFD118224FF4227004F017
:10061C00E9FB003818BF012006B070BD8809002026
:10062C00201E0020F0B5194B87B01B681BB90024A5
:10063C00204607B0F0BD164B9842F8D918226946EF
:10064C004FF4227004F0B8FB0028F0D000246B4665
:10065C0020463C2625460F4A19789F781160597818
:10066C00033006FB0171B1F5B46F516084BF0124F6
:10067C00C2E90055182803F1030302F10802EBD17B
:10068C0014B1FFF7A7FFD3E70124D1E788090020B5
:10069C00FF060200201E0020002230B5164D2C68EB
:1006AC00013214F0800F21D06B688B421ED1C4F341
:1006BC00C20304F00704A34205D11C1A6342634130
:1006CC00A3B1104630BD08D2834204D8844234BF53
:1006DC0000230123F4E70023F2E7844204D283428F
:1006EC008CBF00230123EBE70123E9E7082A05F17E
:1006FC000805D4D10020E5E7201E0020704700003B
:10070C00F0B564274FF4C876DFF89CC0C0F307231C
:10071C00C0B291FBF7F591FBF6F4002A07FB151517
:10072C0006FB141407DC64254FF4C8761E4FEAB997
:10073C0040EA0320F0BD1044012B03F1FF325CF8BA
:10074C00222005D111F0030F02D105B904B90132F1
:10075C008242EDDA0133821A0C2BC8BF01234FF011
:10076C00010002F1FF32C8BF0131D2E7104400286A
:10077C00DEDC013B04BF0C2301F1FF315A1E012BBF
:10078C0057F822400CD18A070AD191FBF5F205FBF0
:10079C00121222B991FBF6F206FB121202B90134C5
:1007AC0002462046C3E700BF00CD000817230229EC
:1007BC0003FB01F14FF0090310B5D8BF144691FBB0
:1007CC00F3F1D8BF02F1FF321346C8BF941E204488
:1007DC00002A0844B8BFD31C043000EBA3006FF010
:1007EC00630392FBF3F318444FF4C87392FBF3F2D8
:1007FC000244072092FBF0F0C0EBC000101A10BDB1
:10080C0003460B4A0138022B52F820000FD18B07FC
:10081C000DD16422B1FBF2F302FB131333B94FF485
:10082C00C872B1FBF2F302FB131101B9013070472E
:10083C0000CD0008F8B5664B04461A68824200F0F9
:10084C00C4804FF0070C90FBFCF24FF0130EC2EB80
:10085C00C20290FBFEF7861A64220EFB170790FB70
:10086C00F2F2186000F0030543425A4803F0030308
:10087C0094FBF0F0104400F1040158BF5D421923C1
:10088C0091FBFCFCD2000D3292FBF3F2CCEBCC0CC6
:10089C00A1EB0C014FF01E0C801A0F3090FBFCF3F7
:1008AC000CFB13030EFB073E9EFBFCF30CFB13E34C
:1008BC001D2B00F08B801C2B02D10B2FA8BF1B23F0
:1008CC0005EB460203EB4300024401EB4202072115
:1008DC0092FBF1F1C1EBC101521A134403F116065C
:1008EC001F2ECABFA3F109060323042340F20112F1
:1008FC0046EA03264FF48373374D40F20151C5E9A4
:10090C00012340F6032340F61940C5E9031340F6D2
:10091C001A436FF02F02C5E9050321463046FFF755
:10092C00EFFE6FF001022146E8613046FFF7E8FE6A
:10093C000022214628623046FFF7E2FE01222146C2
:10094C0068623046FFF7DCFE27222146A86230465B
:10095C00FFF7D6FE31222146E8623046FFF7D0FE83
:10096C003222214628633046FFF7CAFE3C2221463C
:10097C0068633046FFF7C4FE22460C21A86318209A
:10098C00FFF714FF6FF014020646121A214640F6C8
:10099C001840FFF7B5FE6FF00D022146E863921B7D
:1009AC0040F61840FFF7ACFE6FF0060221462864B3
:1009BC00921B40F61840FFF7A3FE21466864724272
:1009CC0040F61840FFF79CFEA864F8BD1C2377E79F
:1009DC00EC02002070FEFFFFA002002010B50446C0
:1009EC000846FFF727FF122C96BF024B002053F846
:1009FC00240010BDA002002030B50024054620467E
:100A0C00E3B2994201D92B7803B930BD2B5DA3F128
:100A1C003002D2B2092A05D9A3F14102052A06D81F
:100A2C00373BDAB202EB001398B20134E8E7A3F1DA
:100A3C006102052A01D8573BF3E70022F2E701389F
:100A4C0010F8013F03B970478B4208BF0270F7E7FB
:100A5C00044B80B21860044B1860044B1860044BB4
:100A6C00186070471C00002020000020240000208B
:100A7C002800002070B51749174B0A68174C82EAFA
:100A8C00821003EA824343EA50330B60144908682E
:100A9C00820022F01F0280EA800042EAD0600860E7
:100AAC002268104982EA423501EAC21141EA5551E5
:100ABC000D4D21600D4A2C68584084EAC40602EAA8
:100ACC00443242EA1632484050402A6020F000403E
:100ADC0070BD00BF1C0000200000F8FF24000020A7
:100AEC002000002000F8FFFF280000200000F0FF8D
:100AFC002DE9F8436421D0E9008940F2B27440F248
:100B0C006D174FF4C8753F4E14F0030019D194FBC8
:100B1C00F1F301FB1343BBB994FBF5F305FB134352
:100B2C00002B14BF3A464FF4B7727243D31790455B
:100B3C0079EB030C0BDBB8EB020869EB030901340E
:100B4C00E2E740F26D12F0E74FF4B772EDE7642381
:100B5C00B4FBF3F103FB11414FF4C873B4FBF3F591
:100B6C00002603FB1545DFF8A4C0264F012E04D147
:100B7C0018B9002944D1002D42D05CF826207A43C4
:100B8C00D317904579EB030E07DBB8EB020806F19F
:100B9C00010669EB03090C2EE8D1002340464946B7
:100BAC00184AFFF7CDFA174B05464343B8EB030839
:100BBC0069EBE3794FF46162002340464946FFF745
:100BCC00BFFA4FF461634343B8EB030869EBE37975
:100BDC0007463C22002340464946FFF7B1FA3C2128
:100BEC00034659430848A4F26C740135C0E9046407
:100BFC00C0E90275B8EB010243600260BDE8F883FE
:100C0C001D22BCE780510100F002002000CD00083D
:100C1C0013B5012110200AF0D3FF074C01A80AF0EC
:100C2C0044FE064B204601A901930AF0F1FD4FF456
:100C3C000053236102B010BD0010014000200210CF
:100C4C004FF40052014B5A61704700BF0010014035
:100C5C004FF40052014B1A61704700BF0010014065
:100C6C0007B5012104200AF0ABFF01A80AF01DFE14
:100C7C00044B054801A901930AF0CAFD03B05DF8C5
:100C8C0004FB00BF4000024800080140034B986879
:100C9C0080F04000C0F38010704700BF0008014096
:100CAC0010B5114C03462068E8B1104A104912687F
:100CBC0064325A610F4A1268013A1A610E4A12687C
:100CCC00DA600A68072A4FF000020CBF1146096867
:100CDC001A62996109492260096899600849096892
:100CEC0059600F21196010BD4C03002054030020E3
:100CFC0050030020340300202C0300201803002094
:100D0C003003002013B5012108200AF059FF0E4CC6
:100D1C0001A80AF0CAFD0D4B204601A901930AF067
:100D2C0077FD012108200AF04BFF01A80AF0BDFD58
:100D3C00074B204601A901930AF06AFD4FF400739A
:100D4C00236102B010BD00BF000C01400001020481
:100D5C000002021038B5A64A13681446FF2B0DD1B9
:100D6C00A4490B68642B05BF4FF40071A24B0133EF
:100D7C0059610ABF00230B60136038BD4FF48071BA
:100D8C009D480AF099FD054660B9FFF761FF22689E
:100D9C009A4B012A0AD0022A15D04ABB01221D60A7
:100DAC002260EAE7FFF74CFF0125F0E71A68AA4238
:100DBC00E3D0AA1C2260FF221D60914B1A60002216
:100DCC00904B1A60D9E718688E49A8420A6802D17C
:100DDC0001320A60D1E70321782A21601D6002D913
:100DEC000022874BEAE74A2AE9D800232360E6E78A
:100DFC0018688449A8420A68EAD002211D60931F32
:100E0C00122B7F4D216030D9052A94BF7E487F4834
:100E1C0005F080FB7E4805F07DFB002323602B68EA
:100E2C000F2B40F058817B4A116821B101207A497F
:100E3C0008600021116001333B2B2B6040F06B816B
:100E4C00764A774B11681868764C8842764807D1F9
:100E5C00016825680131A94202BF01256D490D6069
:100E6C0012681A6023680360A9E70F2A2B6840F206
:100E7C001A81113B292BD2D801A252F823F000BFC2
:100E8C00350F00082B0E00082B0E00082B0E000847
:100E9C003D0F00084F0F0008570F00085F0F0008A8
:100EAC00670F00086F0F0008770F00087F0F00080E
:100EBC008D0F0008990F0008A10F0008A90F00085A
:100ECC00B10F0008B90F0008C10F0008CF0F0008C0
:100EDC00DB0F0008E30F0008EB0F0008F30F00080E
:100EEC00551000085D10000861100008651000081E
:100EFC00691000086D1000087110000875100008CA
:100F0C00791000087D100008811000088510000879
:100F1C00891000088D100008911000089510000829
:100F2C009D100008A51000080122404B1A6076E7BE
:100F3C003C4A1368013313603D4A13680133136054
:100F4C006DE7384A13680233F5E7364A1368043301
:100F5C00F1E7344A13680833EDE7324A13680A3371
:100F6C00E9E7304A13681433E5E72E4A136828334F
:100F7C00E1E72F4B1B68DA073FF551AF2D4847E7E8
:100F8C00264A1368013313602B4AD6E7234A1368A9
:100F9C000233F8E7214A13680433F4E71F4A136855
:100FAC000833F0E71D4A13680A33ECE71B4A136851
:100FBC001433E8E7204B1B68DB073FF530AF1F48C5
:100FCC0026E71F4A1368013313601E4AB5E71C4A13
:100FDC0013680233F8E71A4A13680433F4E7184A23
:100FEC0013680833F0E7164A13680A33ECE700BFBE
:100FFC003000002044030020000C01402803002096
:10100C002C0000201403002030CD00084DCD00082A
:10101C0037E10008480300204C030020180300208F
:10102C002003002030030020240300201C03002098
:10103C00380300206BCD00083C0300208CCD000849
:10104C002C03002040030020344A13681433BBE700
:10105C00334AB7E7324ABBE7314ABDE7314AB1E719
:10106C00304AB5E72F4AB7E72E4AB9E72D4ABBE716
:10107C002D4AA7E72C4AABE72B4AADE72A4AAFE744
:10108C00294AB1E7284AE0E7274A136828339BE747
:10109C00254A1368503397E7244B1B68D8073FF554
:1010AC00BEAE2348B4E6232B0AD03A2B0ED01C2B11
:1010BC007FF4B5AE1F4B1B68D9077FF5B0AE5DE76B
:1010CC001D4B1B68DA077FF5AAAE78E7174B1B6838
:1010DC00DB07E6D4A3E6102B03D0FF2B3FF46FAE57
:1010EC00A9E6002215490A6015490A6011490A60EF
:1010FC0011490A600D490A6012490A6012490A60D6
:10110C0012490A6006490A6004490A6005490A60E6
:10111C0005490A608FE63FF668AE50E62C030020C6
:10112C00500300203403002054030020400300200F
:10113C00ADCD0008380300203C0300204C030020F8
:10114C00480300201C03002030030020180300205B
:10115C00034B1A6812B11A68013A1A60704700BF43
:10116C00601E0020064B1A68064B012A18BFB0FB04
:10117C00F2F0013018601A68002AFCD1704700BFE9
:10118C0038000020601E0020044B1B685843044BA1
:10119C0018601A68002AFCD1704700BF3400002088
:1011AC00601E0020014608B5013900D208BD4FF47D
:1011BC007A70FFF7E9FFF7E7002808BF64204FF4C7
:1011CC007A73B3FBF0F30D4A13600D4A0D4BB2FB6F
:1011DC00F0F21B68B3FBF2F3B3F1807F0AD2F0217B
:1011EC00094A013B5360094B83F823100023936099
:1011FC0007231360064B1860704700BF34000020B3
:10120C0040420F001402002010E000E000ED00E06E
:10121C003800002010B5234B04461A6886B0824271
:10122C003ED0186068460AF040FB02A80AF01EFE89
:10123C00012108200AF0C4FC012108200AF0C0FC9E
:10124C0001214FF480200AF0C7FC174B6946174860
:10125C0000930AF0DDFA164B6946144800930AF025
:10126C00D7FA012113480AF037FE00234FF440222D
:10127C00104802A9CDE90332ADF8143002940AF0FB
:10128C00A1FD01210B480AF0FBFD0A48012240F2A6
:10129C0025510AF001FE084B01A801930AF00EF942
:1012AC0006B010BD5803002000040318000C0140C8
:1012BC000008034800480040270000010E4B30B4E2
:1012CC001A4619681F29FCD80C4B0D4D1C68C0B26E
:1012DC00611C1F29196088BF0021285588BF19601F
:1012EC0072B613680133136062B6012230BC40F24F
:1012FC00277104480AF0D0BDA8030020B0030020D9
:10130C0088030020004800400B4B10B51A461968A2
:10131C000029FCD0094B0A4C1868411C2029196083
:10132C0008BF0021205C08BF1960C0B272B61368F8
:10133C00013B136062B610BD7C03002080030020CB
:10134C005C030020014B1868704700BF7C03002031
:10135C0038B540F2255124480AF0CAFDD0B140F20C
:10136C00255121480AF0E3FD1F480AF0B1FD1F4B3F
:10137C001A681F2A0ED81E4A1E4D1468C0B2611C72
:10138C001F29116088BF0021285588BF11601A6879
:10139C0001321A6040F2277113480AF0A9FD10B30C
:1013AC0040F2277110480AF0C2FD134B1A689AB12B
:1013BC00124A134C1168481C2028106008BF0020EA
:1013CC00615C08BF10601A680748013A1A60C9B21C
:1013DC00BDE838400AF078BD40F22771BDE83840CE
:1013EC0001480AF059BD38BD004800407C0300207C
:1013FC00840300205C030020A8030020AC03002021
:10140C008803002007B5064B01229B6801A94FF405
:10141C0020708DF8043003F0E5FC03B05DF804FB9C
:10142C00641E002007B5064B02229B8901A940F2DD
:10143C008120ADF8043003F0D5FC03B05DF804FB5B
:10144C00641E002007B5064B02221B8A01A940F23C
:10145C008320ADF8043003F0C5FC03B05DF804FB49
:10146C00641E002007B5064B01225B6901A940F2FE
:10147C0085208DF8043003F0B5FC03B05DF804FB57
:10148C00641E002007B5064B01229B6901A940F29E
:10149C0086208DF8043003F0A5FC03B05DF804FB46
:1014AC00641E002007B5064B0122DB6901A940F23E
:1014BC0087208DF8043003F095FC03B05DF804FB35
:1014CC00641E00204FF67E7330B585B0ADF8043045
:1014DC0006230A0A8DF8063000F2051313448DF822
:1014EC000A109BB2C9B20B445B4200248DF8092050
:1014FC008DF80C30C3F30722EF238DF807008DF81D
:10150C0008408DF80B208DF80D3001AD15F8010B4E
:10151C000134FFF7D3FE0A2CF8D105B030BD000022
:10152C0010B504460146044805F090F8A1B2062017
:10153C00BDE81040FFF7C6BFCECD000810B504467D
:10154C000146044805F082F8A1B20720BDE810401E
:10155C00FFF7B8BFE8CD000810B5044601460448B3
:10156C0005F074F82146BDE810400920FFF7AABF2A
:10157C00FECD000800210C20FFF7A4BF41EA00219A
:10158C0089B20F20FFF79EBF08B5064804F0C2FFD2
:10159C00054804F0BFFFBDE8084000214620FFF7D6
:1015AC0091BF00BF20CE000837E100082DE9FF41B4
:1015BC00FFF7C8FE092806D9FFF7A6FEC0B27E28A1
:1015CC008DF8040001D000205CE0FFF79DFE8DF843
:1015DC000500FFF799FEC0B206288DF80600F2D17F
:1015EC00032401ADFFF790FE285501340A2CF9D1E4
:1015FC009DF806209DF805309DF8075013449DF882
:10160C0008209DF809602B4413449DF80A70BDF81E
:10161C000B2033443B445B4252BA92B29BB29A4287
:10162C0002D08F4805F012F89DF80D30EF2BCAD17F
:10163C00BDF809403D2D64BADFF8EC82894A8A4B2B
:10164C00A4B222D1D8F80410052905D111683D297E
:10165C001BD119688C4218D1FF2111604FF6FF7213
:10166C00824C1A60824B22781978914208D9814BAE
:10167C000220995CFFF782FF237801332370A2E7E5
:10168C000020187004B0BDE8F08115603A3D1C6074
:10169C00132D1DD8DFE815F01400500059005E0022
:1016AC0061006400830099009B009F00A200B700BA
:1016BC00C700CE00D100D400D700DA00DD00E00076
:1016CC00012C33D16C4804F025FF6C4804F022FF48
:1016DC00D8F8005001243DBBC8F80040FFF754FF78
:1016EC006420FFF751FDFFF761FF0220FFF734FF85
:1016FC006420FFF749FDFFF759FF2846FFF71EFF4F
:10170C006420FFF741FDFFF751FFD8F80800FFF701
:10171C0007FF6420FFF738FDFFF748FF584804F037
:10172C00F9FE564804F0F6FE2046ABE7022C01D138
:10173C005448C8E75448C6E7012C01D15348C2E7C6
:10174C00022C0CBF52485348BDE72146524804F0C6
:10175C007DFFBDE721465148F9E721465048F6E7A1
:10176C000CB95048AFE7E00705D54F4804F0D2FE5E
:10177C00424804F0CFFEA10705D54C4804F0CAFE40
:10178C003E4804F0C7FE620705D5494804F0C2FE86
:10179C003A4804F0BFFE23079AD5464893E7062C37
:1017AC000DD8DFE804F00406080C0C0C0A004248C3
:1017BC0089E7424887E7424885E7424883E73A464B
:1017CC003146414804F042FF82E740487BE73A4605
:1017DC0031463F48F6E721463E48B8E7052C10D87D
:1017EC00DFE804F0030507090B0D3B486BE73B48AA
:1017FC0069E73B4867E73B4865E73B4863E73B489D
:10180C0061E73B485FE7032C0BD8DFE804F00204E8
:10181C000608384857E7384855E7384853E73848FA
:10182C0051E738484FE72146374804F00FFFC8F816
:10183C0004404DE72146354889E72146344886E780
:10184C002146344883E72146334880E72146334814
:10185C007DE7214632487AE72146324877E700BFD8
:10186C0041CE00083C00002040000020C4030020B2
:10187C00C5030020B40300205CCE000837E100084B
:10188C00EFD2000879CE000894CE0008B6CE00083E
:10189C00D2CE0008ECCE000816CF000842CF0008CC
:1018AC006CCF000894CF0008AECF0008C9CF000859
:1018BC00E2CF0008FCCF000813D000082CD00008A1
:1018CC004CD0000869D0000882D00008ABD00008CA
:1018DC00BDD00008DAD00008F0D0000804D1000810
:1018EC0015D1000827D1000839D100084ED10008C5
:1018FC0060D1000875D1000894D10008B3D100085C
:10190C00D2D10008F1D1000811D200082AD2000867
:10191C0047D2000866D2000881D2000898D200088D
:10192C00B5D20008D4D20008641E002010B5264A97
:10193C000346106886B000283AD0244A244C9342BF
:10194C0038D9012269464FF4207003F035FA02228F
:10195C0004A940F2812003F02FFA022205A940F2DB
:10196C00832003F029FA012201A940F2852003F01B
:10197C0023FA012202A940F2862003F01DFA01226B
:10198C0040F2872003A903F017FA9DF80030A360FA
:10199C00BDF81030E360BDF8143023619DF80430BD
:1019AC0063619DF80830A3619DF80C300120E36160
:1019BC0006B010BD00231E22C4E90433C4E902237F
:1019CC000723A3610523F1E788090020FF06020025
:1019DC00641E002008B5084B186860B1FFF712FDB3
:1019EC00FFF720FDFFF72EFDFFF73CFDFFF74AFD4B
:1019FC00FFF758FD012008BD8809002008B5044BED
:101A0C009860FFF78DFDBDE80840FFF7FBBC00BFF9
:101A1C00641E0020014BD860FFF704BD641E00203B
:101A2C00014B1861FFF70EBD641E0020014B58617D
:101A3C00FFF718BD641E0020014B9861FFF722BD13
:101A4C00641E0020014BD861FFF72CBD641E0020E2
:101A5C00044A13780F2B9FBF0349C85401331370EA
:101A6C00704700BFC5030020B40300200023024AC6
:101A7C001370024A13707047C4030020C503002082
:101A8C00002310B5064C2370064B1B783BB1064B5C
:101A9C0002201978FFF772FD23780133237010BDF3
:101AAC00C4030020C5030020B403002008B54FF484
:101ABC001650FFF7AFFB034804F02CFDBDE80840BF
:101ACC00FFF758BDFED2000830B500EB40041148BA
:101ADC001343204490F8745490F8754490F87604AD
:101AEC0001D103060BD459B910F0200F07D10A4BC2
:101AFC0004EB051400F01F002344013803D230BD61
:101B0C0010F0400FF2E71A7842F0020203F8012BB2
:101B1C00F3E700BF502B00201407002010B50F2452
:101B2C000B785343B3FBF4F3DBB203700C7814B1B2
:101B3C000BB9012303700F244B785343B3FBF4F31D
:101B4C00DBB243704C7814B10BB9012343700F24F2
:101B5C008B785343B3FBF4F3DBB283708C7814B102
:101B6C000BB901238370CB785A430F23B2FBF3F2EA
:101B7C00D2B2C270CB7813B10AB90123C37010BDB5
:101B8C00E022074911F8013B98074CBF43F00403CE
:101B9C0003F0FB03013A01F8013CF3D1704700BF9D
:101BAC0014070020074BDA681A615A6C9A64064ACB
:101BBC00064B11781970517859709178D2789970C8
:101BCC00DA707047841E002070010020680100202C
:101BDC00034B1B6B1BB14FF4AC7007F0CFBD7047C0
:101BEC00841E002070B506460D46E0242046314682
:101BFC00013407F027FEB4F5AC7FF7D11DB1BDE879
:101C0C007040FFF7E5BF70BD002307B5014601A882
:101C1C000193FFF7E7FF03B05DF804FB07B50E4A2D
:101C2C000E4B0146107833F810008DF804005078F4
:101C3C0033F810008DF805009078D27833F8100046
:101C4C0033F812308DF8060001A88DF80730FFF735
:101C5C00C9FF03B05DF804FB68010020E2D3000863
:101C6C001FB56B4600221946064850F8044B01324A
:101C7C00102A03F8014BF8D140F2EF1003F0B2F840
:101C8C0004B010BD5C2000201FB56B460022194625
:101C9C00064850F8044B0132102A03F8014BF8D1D6
:101CAC0040F2AB7003F09EF804B010BD9C200020F5
:101CBC0013B50D4C01A9B4F8442094F84630ADF896
:101CCC000420A42003228DF8063003F08BF894F83E
:101CDC00473001220DF1030140F245108DF803301D
:101CEC0003F080F802B010BD841E002007B5064B2F
:101CFC000122DB690DF10701BC208DF8073003F0E0
:101D0C0071F803B05DF804FB841E002007B5064B88
:101D1C0001221B6A0DF10701A8208DF8073003F092
:101D2C0061F803B05DF804FB841E002007B5064B78
:101D3C0001229B680DF10701A9208DF8073003F0F3
:101D4C0051F803B05DF804FB841E002007B5064B68
:101D5C000122DB680DF10701BD208DF8073003F07F
:101D6C0041F803B05DF804FB841E002007B5064B58
:101D7C0001229B690DF10701BE208DF8073003F09D
:101D8C0031F803B05DF804FB841E002013B50D4C34
:101D9C0001A9B4F8482094F84A30ADF80420D720B3
:101DAC0003228DF8063003F01DF894F84B30012215
:101DBC000DF103014FF4A3708DF8033003F012F80A
:101DCC0002B010BD841E002013B50E4C01A9B4F84E
:101DDC00502094F85230ADF8042040F2A170032248
:101DEC008DF8063002F0FEFF94F8533001220DF10D
:101DFC00030140F2A4708DF8033002F0F3FF02B03F
:101E0C0010BD00BF841E002007B5064B01221B69C4
:101E1C000DF10701DA208DF8073002F0E3FF03B073
:101E2C005DF804FB841E002007B5064B01225B689D
:101E3C000DF10701DB208DF8073002F0D3FF03B062
:101E4C005DF804FB841E002007B5064B01221B6CB9
:101E5C000DF10701DC208DF8073002F0C3FF03B051
:101E6C005DF804FB841E002007B5064B0122DB6BDA
:101E7C000DF10701DD208DF8073002F0B3FF03B040
:101E8C005DF804FB841E00200C2807B518D814221A
:101E9C000C4B02FB0032D36D526E03F00F03920712
:101EAC008DF8073003D543F010038DF8073001226D
:101EBC000DF10701E53002F095FF03B05DF804FB6E
:101ECC00FF23F2E7841E0020022888BFFF2307B5FA
:101EDC0098BF0B4B4FF001029CBF03EB0013D3F8E0
:101EEC005C310DF1070198BF03F00F0300F22510D0
:101EFC008DF8073002F076FF03B05DF804FB00BFED
:101F0C00841E0020042807B51CD80F4A02EB0013CE
:101F1C0002EB0012D3F88C31D2F8942103F00F03AA
:101F2C0092078DF8073003D543F020038DF8073066
:101F3C0001220DF1070100F2351002F053FF03B03E
:101F4C005DF804FBFF23F1E7841E002007B5074B67
:101F5C000122D3F858320DF1070140F27F208DF8A1
:101F6C00073002F03FFF03B05DF804FB841E002035
:101F7C0070B522488EB0446A064664B3002402460B
:101F8C002346516E1432890742BF0EA901EB84011E
:101F9C0041F8343C03F1010348BF01340D2BF0D15F
:101FAC00174D5CB92C6014222B6802FB03639B6DEC
:101FBC0098470022134B1A600EB070BDFEF75AFD05
:101FCC00B0FBF4F303FB14040EAB03EB840454F8E2
:101FDC00343C2B60E7E71425094B0A491B680A6857
:101FEC0005FB0303D86D013282420A60E4D39B6D7A
:101FFC000C600EB0BDE87040184700BF841E002076
:10200C00280900202C0400202DE9F04F0C060CD5DB
:10201C00DF293CD033D8D6293BD02CD8B0293AD0A4
:10202C00C42908BF022118BF202100274FF0010E40
:10203C004FF004082C4C2D4E04EBC10102F1010CA5
:10204C008246E1468419B9F1080F2AD9BCF1090F6F
:10205C00C2F1080488BF002423B9044406F13005FA
:10206C000F2C3DD90137082F06F1100601F10101A3
:10207C00E6D1BDE8F08FDC2908BF0421D3E7F629AF
:10208C000BD0FC290BD0E42908BF0521CBE7082194
:10209C00CBE70321C9E70121C7E70621C5E70721E3
:1020AC00C3E7BAF10F0F0ED80D78C9F1080B45FA3A
:1020BC000BF505F0010563B12DB194F8305045F0E6
:1020CC00020584F8305009F1010901340AF1010AC2
:1020DC00B9E715B184F83080F5E784F830E0F2E721
:1020EC0005F804E00134BBE762D4000814070020B3
:1020FC00064BDA6B1B6C1044984228BFC01A772829
:10210C0002D8E03007F09EBB704700BF841E002051
:10211C00E02007F033BB70477047DF2810B514463A
:10212C000AD8C30648BF80F00F0007F08BFB1CB128
:10213C00BDE81040FFF7ECBF10BD000073B5244B99
:10214C0005461A680AB901251D600024214A224B54
:10215C001178224E33F8111001948DF8001051783B
:10216C0033F811108DF801109178D27833F81110E2
:10217C0033F812308DF802108DF8033016F8012B5D
:10218C0012F0020218D0002269462046FFF7C5FF64
:10219C0016F8013C43F001030134E02C06F8013C35
:1021AC00ECD10F4C8DB163687BB90120FFF736FD84
:1021BC000123A36202B070BD204601A9FFF7ADFF59
:1021CC0016F8013C23F00103E6E7FFF7A1FFEFE768
:1021DC00C803002070010020E2D30008140700207F
:1021EC00841E002010B5054C636A1BB10020606290
:1021FC00FFF7A4FF0123A36210BD00BF841E0020C3
:10220C0073B500240546144A144B1178144E33F858
:10221C00111001948DF80010517833F811108DF8CD
:10222C0001109178D27833F8111033F812308DF800
:10223C0002108DF8033016F8012B20462A401ABFE5
:10224C000022694601A90134FFF767FFE02CF2D1A7
:10225C00FFF75EFF02B070BD70010020E2D30008F2
:10226C0014070020002370B5164D174C2E68184625
:10227C0022683178FFF7C8FEC2F1090016F8011F79
:10228C00D9B10F280DD90420FFF7BAFF2368082B0A
:10229C0003F1010214D1002323602B6801332B605E
:1022AC000FE000231A46FFF7AFFE0930E6E70023E4
:1022BC0020211A46FFF7A8FE09300F28F7D9E2E7CC
:1022CC00226070BD800100205808002038B5194BE1
:1022DC005A6A1D4632B30023174AC5E90933136005
:1022EC00154C236801332360FEF7C4FBE021134A2D
:1022FC0000F0060012F8013BC0B113F0030F15D02B
:10230C0043F00403013902F8013CF3D12368202B7C
:10231C0002BF0123AB620220BDE8384018BF042085
:10232C00FFF76EBF9B6A002BDAD038BD23F0040395
:10233C00E8E700BF841E00201C04002014070020C6
:10234C00F8B5354D6B6A63B10023344AC5E90933DE
:10235C001360002432482146844610220CEB0117EE
:10236C0047E0AC6A9CBB2D4B1B68002BF1D02B4B70
:10237C001B68012B2BD12A48002184460CEB01163B
:10238C0000233746F25C02F0060EBEF1020F10D1AC
:10239C0013B112F0040F0CD142F00402FA541A4695
:1023AC0013460E2B02F1010202D8845CA407F7D469
:1023BC00012401330F2BE5D901310E2900F1100056
:1023CC00DCD10420FFF71CFF0CB90123AB62F8BD74
:1023DC00531EC65C16F0010F1BD00F2B02D0BC5C39
:1023EC00E40704D426F00106FE5403B1931E1A46EA
:1023FC000124002AECD101310E2900F11000ACD1DE
:10240C000120FFF7FDFE002CB1D10122034B1A6015
:10241C00ADE71A46EDE700BF841E002054080020EB
:10242C00140700202DE9F74F654C636A4BB300236A
:10243C00C4E909330123634A1360634A1360634D93
:10244C000E23294600221F46013B1C0105EB0316F7
:10245C0016F8010B00F0030CBCF1010F41D10C4438
:10246C0020F001000D2BA05405D001EB07118B5C63
:10247C0043F001038B54052003B0BDE8F04FFFF788
:10248C00BFBEA36A002B40F098804E4B1D68002DF8
:10249C00D5D14D4B1A680193002A00F087804C4C23
:1024AC004C494D4A4D4E23680F68126830684749B5
:1024BC00FBB101EB001C1CF80230013023F00403CB
:1024CC000CF8023001EB0013995CB84214BF41F0D8
:1024DC00040141F00501306012BF995499542560F4
:1024EC00C9E70132102AB3D1002BABD1354A1360A6
:1024FC00C1E71D464FF0D00E99469C460E21002692
:10250C00324C00910EF1100A0139FDB914F80E800D
:10251C0008F0030BBBF1020F13D1002936D00D4686
:10252C0008F00102013D42B314F80A30009843F060
:10253C00040304F80A30012332460F4699469C46A0
:10254C001D460136102E04F10104DED1AEF1100E41
:10255C000029D4D1BCF1000F03D01E490F601E49D5
:10256C000A60B9F1000F03D01C4A1060184A1360BE
:10257C00002D80D1019B1D607DE7002DD2D17BB950
:10258C002278184642F004022270D4E74FF0010C76
:10259C0022780F4642F00502227065463246D0E79B
:1025AC0032460F461D464FF0010CCAE7FFF7E8FA1A
:1025BC000420FFF725FE0123A36203B0BDE8F08FD2
:1025CC00841E0020F8060020F406002014070020CA
:1025DC0004070020FC06002000070020F006002065
:1025EC00F8B5444C636A7BB30023434AC4E909330E
:1025FC001360414D2B68062B3DD81E463F4903EB1B
:10260C0003101A010844C3F11004A64220D3D21AB5
:10261C005E1C0A44C3F10D00864202F110021ED367
:10262C0003EB00120A4419461078013140F0040003
:10263C008C4202F8010BF7D8FBB90420FFF7E0FD40
:10264C002B6801332B6002E0A36A002BD1D0F8BDBC
:10265C000778013647F0040700F8017BD5E712F83C
:10266C001370013647F0040702F81370D77B47F05C
:10267C000407D773D0E7072B34D15A1E14461F49D1
:10268C0002EB02100844C2F11007BC4213D31E46E1
:10269C00C3EB03100844C2F10D04A64212D302EBA3
:1026AC0004130B441978013221F00401974203F80A
:1026BC00011BF7D8C1E70678013426F0040600F8B0
:1026CC00016BE2E703EB000E1EF802C001362CF0A2
:1026DC00040C0EF802C090F810C02CF0040C00F89A
:1026EC0010CFDAE7FFF74CFA0420FFF789FD01233E
:1026FC00A362ACE7841E0020140400201407002001
:10270C0038B5214A536ADBB100232049C2E90933A9
:10271C000B601F490B601D4C2368ABB9E0231D4AAD
:10272C001178013B21F004019BB202F8011B002B34
:10273C00F6D10420FFF764FD23680133236002E027
:10274C00936A002BE7D038BD114801680131016054
:10275C00C907F8D5013B0F489BB299B2DF2902D9C2
:10276C0001239362E8E7195C1D4611F0020F03F197
:10277C000103F2D041F00401415504200135FFF76B
:10278C003FFD2560D8E700BF841E00201004002008
:10279C0010080020140700202DE9F74F734A536AE4
:1027AC00002B00F0A58000237149C2E909330B60AE
:1027BC006F490B68072B00F2D6806E480026054641
:1027CC0086462A4610241778013C27F0040702F8A5
:1027DC00017BF8D101360E2E05F11005F1D15A1CF2
:1027EC000A60C2F10808102125182E78013926F04C
:1027FC00080605F8016BF8D11034E02CF3D10F4624
:10280C00DFF870C1A3F1070908EB0704062C09EBEC
:10281C00070528BF0624072D38BF0725062F88BFBC
:10282C002C46E24600260EEB04141AF8015BAD07A9
:10283C000CD5072E63D808EB0605072D28BF0725F6
:10284C0014F805B04BF0080B04F805B00136102E47
:10285C00EBD101370E2F0CF1100CD5D16FF0100409
:10286C00964600275C434FEA431C019402EB021A84
:10287C000CF10F0C06460125019CC7F1000904441C
:10288C0096F8008018F0010F10D0062905F1FF38DA
:10289C004BD8B8F1070F38D88A4207D8424505D82B
:1028AC0014F8118C48F0040804F8118C06EB070B93
:1028BC001BF80980013518F0080F1CBF48F00408FC
:1028CC000BF80980112D06F1010604F10104D7D192
:1028DC00103F17F1E00F01F101010EF1010E00F1B3
:1028EC001000C7D1042003B0BDE8F04FFFF788BC3F
:1028FC00936A002B3FF45CAF03B0BDE8F08F09EB9B
:10290C000605082D38BF08259AE78A42CED803EB76
:10291C000508B8F10F0FC9D8A4F10F0B1BF81380E1
:10292C0048F004080BF81380C0E7B8F1070F0BD878
:10293C00BEF10D0FBAD84245B8D814F80C8048F047
:10294C00040804F80C80B1E7BEF10D0FAED803EB10
:10295C000508B8F10F0F9EBF16F80A8048F004085E
:10296C0006F80A80A2E701239362C5E7841E0020C3
:10297C000C04002014070020F8B5784C784D636ADD
:10298C0023B1FEF777F800F00300286029680329CB
:10299C0037D8DFE801F0023F75AC636A73B30023EC
:1029AC00704AC4E9093313606E4A13680F2B2ED892
:1029BC006FF001040D465E1C6B4F1660C3F10E0CDC
:1029CC00E41A08467A19864212F8013B1AD812F812
:1029DC0004E01EF0010F00F1010014BF43F00403EA
:1029EC0023F00403102802F8013CECD11035E02D43
:1029FC00E7D10420BDE8F840FFF702BCA36A002B26
:102A0C00D2D0F8BD12F80CE01EF0020FE3E7012360
:102A1C00A362F6E7636A53B30023544AC4E909334B
:102A2C001360524B18680F28F1D80025421C4E4EEB
:102A3C001A60A0F110070C46721900EB040CBCF1E3
:102A4C000F0F12F8013B16D812F800C01CF0010F42
:102A5C0004F1010414BF43F0040323F00403112C0C
:102A6C0002F8013CE9D11035E02DE4D1C1E7A36AAD
:102A7C00002BC6D1D5E712F807C01CF0020FE7E710
:102A8C00636A5BB300233A4AC4E909331360384ADA
:102A9C001168DF29BBD8002001F11005C1F1CF0767
:102AAC00C1F1FF2101F57F012F4E1560EF3110248C
:102ABC003218854212F8013B14D812F801C01CF0F0
:102ACC00010F14BF43F0040323F00403013C02F88C
:102ADC00013CEED11030E028E9D18AE7A36A002B43
:102AEC008FD1D4E712F807C01CF0020FE9E7636A34
:102AFC004BB300231F4AC4E9093313601D4A116804
:102B0C00DF2984D8002001F11004174EA1F1D10760
:102B1C0014600F3110253218DF2C12F8013B17D836
:102B2C0012F801C01CF0010F14BF43F0040323F092
:102B3C000403013D02F8013CEED11030E02804F111
:102B4C001004E7D155E7A36A002B7FF45AAFD5E701
:102B5C0012F807C01CF0020FE6E700BF841E00202D
:102B6C0024090020FC03002014070020000400208E
:102B7C0004040020080400207FB591494B6A002B07
:102B8C0000F0DC8000231422C1E909338D4B1E7840
:102B9C005D78701E1228B6FBF2F298BF01228A48AB
:102BAC009C7802601422681E1228B5FBF2F298BFC2
:102BBC000122864802601422601E1228B4FBF2F235
:102BCC0098BF012282480260D8781423421E122A30
:102BDC00B0FBF3F398BF01237E4A136000227E4BB7
:102BEC001A705A709A70DA707C4B1E705D709C7003
:102BFC00D870754B1B688BB178480278934200F201
:102C0C00A380D21A0270012273486E4C0578247886
:102C1C002B44A34200F29D80037001236B4A12687F
:102C2C008AB16E4C6078824200F29980801A607092
:102C3C0001236948634C457864782A44A24200F227
:102C4C00948042700123624A12688AB1634CA07866
:102C5C00824200F28F80801AA07001235E48594C8A
:102C6C008578A4782A44A24200F28A8082700123DB
:102C7C00584A1268002A00F09280584CE078824240
:102C8C0000F28380801AE070012353484D4CC578C4
:102C9C00E4782A44A2427ED8C2704A4A504B11783A
:102CAC00002433F811104F4D8DF80410517833F87F
:102CBC0011108DF805109178D27833F8111033F883
:102CCC0012208DF806108DF80720434A117833F83E
:102CDC0011108DF80810517833F811108DF8091077
:102CEC009178D27833F8111033F812208DF80A103D
:102CFC008DF80B20394A117833F811108DF80C101F
:102D0C00517833F811108DF80D10917833F81110AB
:102D1C008DF80E10D27833F812308DF80F3015F87C
:102D2C00013B022B41D1002202A92046FFF7F5F905
:102D3C000134E02CF3D1FFF7EBF903E08B6A002BA5
:102D4C003FF457AF04B070BD002A3FF45DAF0022D2
:102D5C0058E7A54201D004705FE713465EE70028F0
:102D6C003FF467AF0023637062E7A5423FF46BAF9B
:102D7C00447067E700283FF471AF0023A3706CE741
:102D8C00A5423FF475AF847071E700283FF47DAF26
:102D9C000023E37078E7A54201D0C4707DE7002BD7
:102DAC007FF47BAF01238B62CCE7012B02D1002295
:102DBC0003A9BAE7032BBBD1002201A9B5E700BFD9
:102DCC00841E002070010020140800200C07002035
:102DDC00F0030020A0080020340400203004002060
:102DEC00E2D30008140700200023054A11780133B0
:102DFC00C1F34001E02B02F8011BF7D1704700BF73
:102E0C00140700200F2A28BF0F221BB1024B763269
:102E1C0053F82220FEF782BE841E002010B50C4C05
:102E2C000123E2680B4804F14401FFF7EBFF6368F0
:102E3C00033B012B04D9E3699B0701D5FEF7B2FED6
:102E4C00E36A23B1BDE810400120FFF777B910BD4C
:102E5C00841E0020700100200D4A0E49D2F8BC00DF
:102E6C000D4B51F82010D2F8BC0083F844100B49DC
:102E7C0051F8201083F84510D2F8BC10084A52F8CB
:102E8C00212083F84620002283F84720FFF7C6BF95
:102E9C008421002008010020841E0020A8000020AE
:102EAC0048000020064B9A68012A02D0022A04D05E
:102EBC0070473F225A64FFF7B1BFFFF7CDBF00BF89
:102ECC00841E00202DE9F04F9D4D07466B6A87B09C
:102EDC00002B66D000239B4AC5E90933136043F6E7
:102EEC003F73EA68029302A9012303A8FFF78AFF44
:102EFC00954C9DF80C20954B34F81220944E1A707A
:102F0C009DF80D2034F812205A709DF80E2034F8DC
:102F1C0012209A709DF80F2034F81220DA70002FCE
:102F2C0000F085808B4BEA68059305A9012304A862
:102F3C00FFF768FF9DF81020874B34F812200E27FE
:102F4C001A709DF8112034F812205A709DF8122036
:102F5C0034F812209A709DF8132034F81220DA708D
:102F6C0032787E4B34F812201A70727834F81220B2
:102F7C005A70B27834F812209A70F278784E34F88D
:102F8C0012200024DA70E0075BD5FDF773FDB0FB6F
:102F9C00F7F303FB17030134102C336006F104061E
:102FAC00F1D1AE6A002E40F08A80664B1A6800930D
:102FBC00292A00F2BD80684CDFF8A4A12378DFF841
:102FCC009C818DF8143063788DF81530A3788DF8CA
:102FDC001630E3788DF817305AF8045B152D5FD94D
:102FEC00162DA5F1150734D10022584906EB071010
:102FFC00FFF793F8A6F5B87707EB0517A5F11609B7
:10300C0006EB051B0125574B1F44B9F10D0F2DD9AC
:10301C00A9F102030C2B63D9B9F1010F05F10105DC
:10302C00ABF1200BA7F120073AD09946EDE73378A6
:10303C008DF8103073788DF81130B3788DF812301C
:10304C0078E7FDF717FDB0FBF7F303FB1703073326
:10305C00A1E7A5F117000D2805D800223E4906EB83
:10306C000010FFF75AF80D2FC4D8BDE73B7C990729
:10307C0028D5052D26D998F800308DF8143098F8FD
:10308C0001308DF8153098F80230002205A9ABF507
:10309C00B0708DF81630FFF740F8B9F1000FB7D1CA
:1030AC005AF8043C01360133102E4AF8043C93D1F3
:1030BC00FFF72EF8009B009A1B680133136007B0D2
:1030CC00BDE8F08F2378B3FBF5F38DF814306378FB
:1030DC00B3FBF5F38DF81530A378B3FBF5F3D4E718
:1030EC003A78920716D5052D14D998F800208DF84A
:1030FC00142098F801208DF8152098F802208DF8EE
:10310C00162005A90022ABF5B8700193FFF705F85E
:10311C00019B81E72278B2FBF5F28DF814206278DE
:10312C00B2FBF5F28DF81520A278B2FBF5F2E6E7CA
:10313C00FEF726FD0420FFF763F80123AB62BEE720
:10314C00841E002018040020E2D300080008002090
:10315C0070010020003F1000FC070020F807002041
:10316C002C090020140700200020FFF7ABBE012023
:10317C00FFF7A8BE2DE9F04F904D85B06B6A002B80
:10318C005DD000238E4A8F4913608F4A08781360F4
:10319C008E4AC5E9093313608D4A13608D4A13605A
:1031AC008D4A8E4B32F810001870487832F81000A7
:1031BC0058708878C97832F8100032F8112098705D
:1031CC00DA707F4E804F33683C68002B4CD195F8F9
:1031DC0044301F2B39D83F23EA68029302A90123FC
:1031EC0003A8FFF70FFE7C4B9DF80C207C4933F8AD
:1031FC001220764D0A709DF80D20286833F81220A5
:10320C0000EB04104A709DF80E2033F812208A70DF
:10321C009DF80F2033F812300022CB70714B1A70CE
:10322C005A709A70DA70FEF778FF336839686E4A14
:10323C00D15429686D4AD15401333360AFE0AB6A85
:10324C00002BBED005B0BDE8F08F95F845301F2B94
:10325C0002D84FF47C53BFE795F846301F2B94BF30
:10326C004FF47C13624BB7E7182C07D9FEF788FC98
:10327C000420FEF7C5FF0123AB62E3E7544804F0DA
:10328C000102019202685149A24288460B68DFF89C
:10329C00449141D1D9F800209A423DD1019A62B1B2
:1032AC0083B103F1FF3AA6467146524A02EB0E1C5B
:1032BC000D290BD9192202602EE00E2B02D803F136
:1032CC00010AF0E79A4604F1010EEDE78E4501F094
:1032DC00010B0CD0BBF1000F13D15A460F2A0CD89E
:1032EC001CF802B01BF0030F13D10132F6E7524663
:1032FC00BBF1000FF2D001322AB901310CF1100CE4
:10330C00D6E70F22F4E7013A1CF802B01BF0030FCA
:10331C00F2D001602F490A600199D9F800200029E8
:10332C0040D09A4242D2013BC8F800303B680D2B8A
:10333C0007D8D8F800000022294900EB0310FEF74B
:10334C00ECFE3368284D0B2B284C1FD12A780D2A04
:10335C000ED8284B217803EB021301EB02105A5CB8
:10336C0012F002021ABF00221C491E49FEF7D5FEBC
:10337C000A231D491D4A4878013B01F8010B50787E
:10338C0002F8010BF7D13368013B336033683A68BC
:10339C000A2BEA54D8F80020E2547FF64DAFFEF722
:1033AC00B7FE4FE79A4201D90133BDE70368A34248
:1033BC0093BF012301343C60AB62B7E7841E00204D
:1033CC000408002070010020340800203008002080
:1033DC000C08002008080020E2D30008F4070020A5
:1033EC00280800202C080020430800203808002062
:1033FC00003F3F00140700200F2A28BF0F221BB1EB
:10340C00024B863253F82220FEF788BB841E002024
:10341C0013B5124C01231248226904F14801FFF73D
:10342C00EBFF236BC3B10F4B0278012133F8122051
:10343C008DF80420427833F812208DF8052082781C
:10344C0033F812208DF80620C27801A833F8123018
:10345C008DF80730FEF7C6FB02B010BD841E0020AD
:10346C0068010020E2D300080D4A0E49D2F8BC00D6
:10347C000D4B51F82010D2F8BC0083F848100B49C2
:10348C0051F8201083F84910D2F8BC10084A52F8B1
:10349C00212083F84A20002283F84B20FFF7B8BF85
:1034AC008421002008010020841E0020A800002098
:1034BC00480000200A4B5A68042A10D8DFE802F0B2
:1034CC00030606090D00186BFEF7A8BB0020FEF7DB
:1034DC009BBB3F229A64FFF79BBFFFF7C5BF7047AA
:1034EC00841E0020034B5A691A61DA6C9A64FFF748
:1034FC008FBF00BF841E0020034901230A690348C3
:10350C005031FFF779BF00BF841E00206C010020F2
:10351C0038B50446064D28B101232B63BDE838406D
:10352C00FEF756BB0120FEF76FFB2C6338BD00BFC6
:10353C00841E0020F8B505460E461446002A38D0E5
:10354C000020FEF7FBFD200734D505F0E3FDC82075
:10355C00FDF71AFE1C4B5B6813B90120FEF75EFBEE
:10356C00620726D5184FFFF73FFCFB6A43B3324680
:10357C002946164806F02EFCD8B1B6FA86F30B2D68
:10358C0094BF002101215B091E2E14BF1C4601248F
:10359C0000260E4D15F8013B33B1FA69234630462F
:1035AC0002F00102FEF790FA0136802EF2D10123CF
:1035BC007B62F8BDE106D3D50120FEF725FBCFE7F2
:1035CC00E306F4D4F5E700BF841E0020A408002015
:1035DC00052938BF0521034BC3F8A8120146024840
:1035EC0001F02EBC3804002010D30008034BC3F8A4
:1035FC00A8120146024801F023BC00BF3804002089
:10360C001FD3000810B5064801F034FC044628B955
:10361C00044802F07FFF044802F07CFF204610BDF6
:10362C003804002031D3000837E10008F0B5D34B43
:10363C000446186893B0002800F02882D04B03266B
:10364C009A7819888DF8162033F8032F00259B786B
:10365C00ADF814108DF81A3008238DF806303C2381
:10366C008DF8073016238DF8083007238DF80B30B2
:10367C000F23ADF8182004A93246A4208DF80D3084
:10368C008DF802508DF803508DF804508DF80950C8
:10369C008DF80A508DF80F6001F08EFB01220DF1B0
:1036AC000501A72001F088FB01220DF10901A820DA
:1036BC0001F082FB012203A9BD2001F07DFB012258
:1036CC00BE200DF10E0101F077FBB4F5843FC0F084
:1036DC00DF810122A9200DF10A0101F06DFBA94B3C
:1036EC009C4240F2D58101220DF10B01BC2001F06E
:1036FC0063FB324605A9D72001F05EFB01220DF1D8
:10370C000D01DA2001F058FB0122DB200DF106013E
:10371C0001F052FBB4F5003FC0F0BA8101220DF16B
:10372C000701DC2001F048FB0122DD2002A901F099
:10373C0043FB954B9C4240F2AB810D220AA9E5203C
:10374C0001F03AFB324607A940F2251001F034FB98
:10375C0008A9052240F2351001F02EFB8B490AA86E
:10376C000B460E4610F8012BFF2A0BD012F0100F4F
:10377C0002F00F075A6EDF6514BF42F0020222F00E
:10378C0002025A6601350D2D03F11403EAD1002013
:10379C007E4D07AB13F8012B0130FF2A1CBF02F042
:1037AC000F02C5F85C21032805F11005F2D10025A4
:1037BC002B46D6F8A401DFF8E0C108AA12F8017B69
:1037CC00FF2F0CD007F00F0E6445C1F88CE106D921
:1037DC00012B04D1BF0644BF1D4640F0020001334B
:1037EC00052B01F11001E9D10DB1C6F8A401684B0C
:1037FC009C4240F24D8101220DF1020140F2451034
:10380C0001F0DAFA01224FF4A3700DF1030101F07B
:10381C00D3FAB4F5013F40F23B81002510220EA9EA
:10382C0040F2EF1001F0C8FA5A4A0EA911F8013B08
:10383C0001350F2B28BF0F23102D42F8043BF5D177
:10384C00554B9C4240F22481012240F27F200DF125
:10385C000F0101F0B1FA514B9C4240F21981032245
:10386C0006A940F2A17001F0A7FA012201A94FF4B8
:10387C00A37001F0A1FA0622494940F2A57001F0AB
:10388C009BFA2A4640F2AB700EA901F095FA002281
:10389C0044480EAB13F8011B01320F2928BF0F212E
:1038AC00102A40F8041BF5D19DF806300027042B94
:1038BC0084BF00238DF806309DF80930334C0C2B57
:1038CC0084BF00238DF809309DF80A30022B84BF89
:1038DC0000238DF80A309DF810303F2B84BF3F2316
:1038EC008DF810309DF811303F2B84BF3F238DF89D
:1038FC0011309DF812303F2B84BF3F238DF81230CE
:10390C009DF802303F2B84BF3F238DF802309DF889
:10391C0014303F2B84BF3F238DF814309DF81530A5
:10392C003F2B84BF3F238DF815309DF816303F2B6D
:10393C0084BF3F238DF816309DF803303F2B84BF96
:10394C003F238DF803309DF80C300F2B84BF0F23D1
:10395C008DF80C309DF80D300F2B84BF0F238DF894
:10396C000D309DF80E30012B1CBF00238DF80E304E
:10397C009DF80730782B88BF782315E08809002044
:10398C00D8CC0008FF080100FF000200841E0020B4
:10399C00FF0102005C200020FF050200FF0802006E
:1039AC00E02000209C20002088BF8DF807309DF877
:1039BC000830772B84BF16238DF808309DF80F3014
:1039CC00BDF81020102B84BF03238DF80F309DF809
:1039DC0005309DF8150023609DF806309DF81610F3
:1039EC0063609DF80B309DF81450E3619DF809302D
:1039FC00BDF8186023629DF80A30A4F84420A36037
:103A0C009DF812309DF8032084F846309DF8023062
:103A1C0084F8490084F847309DF81A3084F84A102D
:103A2C0084F852309DF8043084F84B20A4F8506090
:103A3C0084F8485084F853309DF80C309DF80E6093
:103A4C00E360A6619DF807609DF80D3026649DF833
:103A5C00086084F84D0084F84E1084F84F202361E0
:103A6C006361E66384F84C50E66AE762FFF7D0FCCA
:103A7C00FFF742FDFFF7D2F99DF80F30E662C4F86C
:103A8C005832FFF70FFAFFF715FD012013B0F0BD08
:103A9C000023044A52F8041B0133102BD163F9D1D3
:103AAC0002E700BF5C20002007B5064B01221B6813
:103ABC000DF10701A7208DF8073001F093F903B041
:103ACC005DF804FB841E00200F2928BF0F2110B5C0
:103ADC000C46054B763043F82010FEF7C1F8FFF783
:103AEC009DF9204610BD00BF841E00200F2928BF61
:103AFC000F2110B50C46054B863043F82010FEF70D
:103B0C00C3F8FFF785FC204610BD00BF841E0020C3
:103B1C0010B5204B1868D8B3FEF7CAF80024FFF78D
:103B2C00C3FFFEF7E3F8FEF7F1F8FEF7FFF8FEF738
:103B3C000DF9FEF71BF9FEF729F9FEF745F9FEF72B
:103B4C0063F9FEF771F9FEF77FF9FEF78DF9204660
:103B5C000134FEF799F9402CF9D1002420460134A8
:103B6C00FEF7B2F9102CF9D1002420460134FEF7EF
:103B7C00C9F9102CF9D1FEF773F8FEF785F8FEF7AA
:103B8C00E5F9062240F2A570034901F02BF901205A
:103B9C0010BD00BF88090020E0200020102828BF9D
:103BAC00102010B5034CC4F85802FEF7CFF9D4F826
:103BBC00580210BD841E002008B5084B0146052292
:103BCC00184608F0F3FA002141710622BDE80840BE
:103BDC00014640F2A57001F005B900BFE0200020BD
:103BEC0070B50D4C0546636800F00206033B012BD3
:103BFC0005D926B1E3699B0701D4FDF7D3FFFFF785
:103C0C0059FCE5610EB9FFF76DFC01236362FEF709
:103C1C006DF8E06970BD00BF841E0020042838B523
:103C2C000D460A4C0FD8636898420CD0E36960606B
:103C3C009B0701D4FFF756FCFFF73CFC0DB107F0D6
:103C4C002DF8FEF7F1F8606838BD00BF841E002027
:103C5C00782828BF782010B5034C206402F0B2FD00
:103C6C00FEF7F2F8206C10BD841E0020762888BF69
:103C7C00002010B5024CE063FEF7F6F8E06B10BDC7
:103C8C00841E002038B50E4D0E4CAA68824201D815
:103C9C00206838BD23689842FAD001232060636203
:103CAC0009B106F0DBFFFFF7FFFE206805F0CCFE44
:103CBC0002F0E8FED5F8F435002BF9D0E8E700BFA8
:103CCC00502B0020841E0020054A064B92680146AA
:103CDC001868013A90422CBF00200130FFF7D2BF88
:103CEC00502B0020841E0020044B0146186808B994
:103CFC00034B98680138FFF7C5BF00BF841E002036
:103D0C00502B00200C2810B5044C05D8206209B1AA
:103D1C0006F0BCFFFDF7FAFF206A10BD841E0020E0
:103D2C0010B5074C236A0B2B8CBF00230133236285
:103D3C0008B106F0ABFFFDF7E9FF206A10BD00BF2C
:103D4C00841E002010B5074C236A43B1013B23624B
:103D5C0008B106F09BFFFDF7D9FF206A10BD0C23BC
:103D6C00F5E700BF841E0020022838B50D46074C2D
:103D7C000AD8A368984207D0A060FFF793F80DB15A
:103D8C0006F09CFFFDF7D2FFA06838BD841E002012
:103D9C00F7B5904D04466B68013B012B00F2EA80AD
:103DAC002B6C8D4A834298BF00241368A3428B4B23
:103DBC0000F09180002168461960146001232A6983
:103DCC0005F14801FFF718FB854A9DF801109DF895
:103DDC00003012F811009DF803709DF8021012F8D3
:103DEC00136012F811107F4B12F817201E705870C8
:103DFC009970DA70EB691B0773D5132E8ABF1423E5
:103E0C000123B6FBF3F3784F13283B608ABF1423CE
:103E1C000123B0FBF3F3754F13293B608ABF1423C6
:103E2C000123B1FBF3F3724F132A3B608ABF1423B7
:103E3C000123B2FBF3F36F4F3B6000276E4B1F70F7
:103E4C005F709F70DF701E7158719971DA716A4BD7
:103E5C006549644E09681A7830780A448242D8BFA2
:103E6C00D0B2187061485A78D0F800E0707872447B
:103E7C008242D8BFD0B258705D489A78D0F800C052
:103E8C00B07862448242D8BFD0B298705948DA7880
:103E9C000768F078D6198642D8BFF0B2D870187976
:103EAC009A79401A59794CBF0020C0B2B1EB0E017F
:103EBC004CBF0021C9B2B2EB0C024CBF0022D2B2F3
:103ECC009A71DA791871D71B48BF0022597154BF07
:103EDC00DF71DA7105E01A6801321A60EB691F07AD
:103EEC00B5D46B68012B47D10020FDF78DFED5F8BA
:103EFC00A4319E0725D52B6C3C2B22D10026EB69D7
:103F0C0013F0040F14BF3D4A3D4A354B117833F87A
:103F1C0011108DF80410517833F811108DF805102C
:103F2C00917833F811108DF80610D27833F81230DE
:103F3C008DF80730304601A90536FEF7D9F83C2E2E
:103F4C00F8D1EB69180742D5002CB9BF286C2A4967
:103F5C0029492046B8BF0019FEF7CAF8601E45BFB4
:103F6C002B6C28492749C018FEF7C2F82B6B0BB1F4
:103F7C00FDF72EFE03B0F0BD234B0020D3F8C0603C
:103F8C00FDF742FEF1071FD5EB6920461B074CBF1E
:103F9C001C491449FEF7ACF8124E01342B6CA342A9
:103FAC00E4D920463146FEF7A3F80134F6E7304653
:103FBC003946FEF79DF80136B442F8D1EB691A0781
:103FCC0005D50D492046CFE70026064FF4E70549F5
:103FDC00F8E700BF841E00201007002020040020FA
:103FEC00E2D3000818080020D4030020D0030020DE
:103FFC00CC030020D80300201C08002070010020F6
:10400C006C010020200800208421002070B5124D86
:10401C000E46EB6AB3B12023104C01463E22A01C85
:10402C002370637008F0C2F800220D480D4B046039
:10403C001A60FEF7D9FE044626B14FF47A7623684F
:10404C001B7803B970BDFEF70DF9D5F85802704313
:10405C008009FDF799F8F2E7841E00205C08002027
:10406C0080010020580800202DE9F04FA74BA84CE8
:10407C001B6887B01B7873B1A64AD4F85812136822
:10408C0001338B42136003D300231360FEF7EAF86D
:10409C0007B0BDE8F08F626B002A00F0F980E26A8D
:1040AC00002AF5D005939C4B1D680093002D3AD146
:1040BC002E469A4C2846002204F8016B05A90135BE
:1040CC00FEF72BF8E02DF5D1954CFEF721F823687F
:1040DC00944AC3F10E035B0813606368924AC3F100
:1040EC0010035B0804F1E8001360FCF7E7F98F4B51
:1040FC00186004F5E470FCF7E1F98D4B8D4A1860FB
:10410C00D4F8A832042B9CBF0523C4F8A832D4F8E9
:10411C00A832013B9B0113600022874B1A600123DC
:10412C00009A1360B4E7844B1D680193013515F0B8
:10413C00010F1D600ED07F2D17D8E3686D08763304
:10414C0054F82330AB4280F09D80784A1268002AE4
:10415C0040F09780019B1A68764B1B689A4297D364
:10416C000023009A6363136092E7724B1B685D1B1C
:10417C007F2DE2D98CE76D4B1B68534536D999F8E6
:10418C00E830402B32D9413B694A126892452FD214
:10419C0099F8C821402A2BD9413A01990968B2EB08
:1041AC00910F4FEA910026D8DBF800005E4A3318D5
:1041BC001068002200EB031005A94044FDF7ADFF89
:1041CC000AF1010A08F1010809F10109544B5B6875
:1041DC009845D0D30136524A13689E4255D24FF0BF
:1041EC000008DFF840B102EB0A09EFE70023CBE748
:1041FC004FF6FF72D1E79842E2D3DBF800704A4ADF
:10420C00F319176807EB03174744BDB399F8083047
:10421C0003A8A3F13002494B13F8221003EB8203DD
:10422C005A789B788DF808108DF80A304FF00003FF
:10423C008DF809208DF80B302A46012302A9FEF7D0
:10424C00E1FD3F4B9DF80C2004A933F812208DF8AA
:10425C0010209DF80D2033F812208DF811209DF8B8
:10426C000E2033F812208DF812209DF80F2033F811
:10427C00123000228DF8133038469FE72A4605A9E4
:10428C00FAE71D460026B246A5E7FDF741FF61E7B8
:10429C00236A0C2B27D8626A22B1142202FB034337
:1042AC009B6D1FE0A26ACAB1A368012B40F0B580D8
:1042BC00244AD4F86C1113680133B3EB411F13601B
:1042CC004FD300231360204B1A68013A052A00F2E1
:1042DC008180DFE802F03D60676F747A042B07D1B0
:1042EC00D4F8A8309847A36A002B3FF4D1AEDBE793
:1042FC00142000FB03431549D86D0A680132824231
:10430C000A60FFF4C5AE00220A60C9E780010020F4
:10431C00841E0020F8030020500800201407002001
:10432C00380400202408002024040020EC03002082
:10433C00E803002008070020F4030020B9D300088C
:10434C00E2D30008E4060020E80600202804002040
:10435C0094F845203E2A3DD8013284F84520FEF7DA
:10436C005DFD6368032B40F0BA80644AD4F8BC113D
:10437C0013680133B3EB411F136066D30023136042
:10438C005F4B1A68013A052A00F28680DFE802F0DA
:10439C0054656C74797F94F84420DAB1013A84F84E
:1043AC004420DCE794F846203E2A13D8013284F8E6
:1043BC004620D4E794F8452062B1013ACDE794F851
:1043CC0044203E2A06D80132E9E794F846200AB187
:1043DC00013AECE74B4A1168062901F1010004BFD0
:1043EC0001211160484918BF10600868126801303B
:1043FC000D281A60086007D1062A02F101010ABFD4
:10440C00012219601A60ACE70E28AAD1013A08BF44
:10441C0006221A6000230B60A3E7022BA1D13B4AB2
:10442C003B4BD2F8BC00196888429AD0D2F8BC2019
:10443C001A60FEF711FD94E794F849203E2A2BD818
:10444C00013284F84920FEF7E3FFD4E90B23134330
:10445C007FF41EAE04F076FE1AE694F84820DAB12A
:10446C00013A84F84820EEE794F84A203E2A13D803
:10447C00013284F84A20E6E794F8492062B1013A07
:10448C00DFE794F848203E2A06D80132E9E794F891
:10449C004A200AB1013AECE71E4A1168062901F1DB
:1044AC00010004BF012111601B4918BF106008688E
:1044BC00126801300D281A60086007D1062A02F133
:1044CC0001010ABF012219601A60BEE70E28BCD197
:1044DC00013A08BF06221A6000230B60B5E7042BD3
:1044EC00B3D10A4A0D4BD2F8BC0019688842ACD043
:1044FC00D2F8BC201A60FEF7B7FFA6E7DC03002059
:10450C00E0030020EC060020740100208421002030
:10451C0078010020E4030020440000207C010020EE
:10452C0010B5094A044692F844303E2B0BD80CBF08
:10453C003F23023382F84430FEF770FC1CB1BDE817
:10454C00104006F033BC10BD841E002010B5094A83
:10455C00044692F8443063B1012B0CBF0023023B9C
:10456C0082F84430FEF75AFC1CB1BDE8104006F04E
:10457C001DBC10BD841E002010B5094A044692F8DB
:10458C0045303E2B0BD80CBF3F23023382F845300D
:10459C00FEF744FC1CB1BDE8104006F007BC10BD92
:1045AC00841E002010B5094A044692F8453063B1C8
:1045BC00012B0CBF0023023B82F84530FEF72EFC8A
:1045CC001CB1BDE8104006F0F1BB10BD841E0020EC
:1045DC0010B5094A044692F846303E2B0BD80CBF56
:1045EC003F23023382F84630FEF718FC1CB1BDE8BD
:1045FC00104006F0DBBB10BD841E002010B5094A2C
:10460C00044692F8463063B1012B0CBF0023023BE9
:10461C0082F84630FEF702FC1CB1BDE8104006F0F3
:10462C00C5BB10BD841E0020027808B53F2A28BFE8
:10463C003F220D4B83F8442042783F2A28BF3F226B
:10464C0083F8452082783F2A28BF3F2283F84620F2
:10465C00C2783F2A28BF3F2283F84720FEF7DEFBB3
:10466C00BDE80840FDF724BB841E002038B50A4B7A
:10467C001446DA680D4682420DD00F2828BF0F2051
:10468C00D860FEF7CBFB0DB106F0F0FA1CB1BDE81B
:10469C003840FDF75BBB38BD841E002010B5074ABF
:1046AC000446D36843B1013BD360FEF7B7FB1CB1A2
:1046BC00BDE8104006F0DABA10BD00BF841E002021
:1046CC0010B5074A0446D3680E2B08D80133D360C3
:1046DC00FEF7A4FB1CB1BDE8104006F0C7BA10BD34
:1046EC00841E002070B50B4C0E4623691546834280
:1046FC000FD00F2828BF0F202061FEF789FE0EB1C6
:10470C0006F0D4FA2DB123696361BDE87040FDF762
:10471C007BBB70BD841E002038B50B4D0C46A861C8
:10472C0009B106F0ABFAAB694BB9012221460F2057
:10473C00FFF79CFF012221460F20FFF7D3FFBDE8B6
:10474C003840FDF713BB00BF841E002038B5057838
:10475C00124B3F2D28BF3F2583F8485044783F2CFF
:10476C0028BF3F2483F8494081783F2928BF3F2147
:10477C0083F84A10C27883F84C503F2A28BF3F2256
:10478C0083F84D4083F84B2083F84E1083F84F206C
:10479C00FEF73EFEBDE83840FDF7F8BA841E002057
:1047AC00027808B53F2A28BF3F220D4B83F85020D2
:1047BC0042783F2A28BF3F2283F8512082783F2A33
:1047CC0028BF3F2283F85220C2783F2A28BF3F22BD
:1047DC0083F85320FEF790FEBDE80840FDF7F4BACD
:1047EC00841E00201422034B02FB0033D965FDF715
:1047FC004BBB00BF841E00201422034B02FB003372
:10480C005966FDF741BB00BF841E0020034B03EB30
:10481C000013C3F85C11FDF757BB00BF841E0020CA
:10482C00034B03EB0013C3F88C11FDF76BBB00BFFC
:10483C00841E0020034B03EB0013C3F89411FDF707
:10484C0061BB00BF841E002037B5012414F0010F9A
:10485C0014BF3923002314F0020F8DF8043014BF59
:10486C003923002314F0040F8DF8053014BF3923BD
:10487C00002314F0080F8DF8063014BF39230023E1
:10488C0000258DF80730284601A9013504F0DAFF20
:10489C00B5F5AC7FF7D1FDF79BF901340320FCF79C
:1048AC0081FC102CD2D10020FDF748FCFEF7B0FDA6
:1048BC0003B030BDF8B5134DEB6ACBB1124ED6F840
:1048CC00F435ABB1A0F114043B2C11D80020FDF74A
:1048DC0035FC0027FEF788FA06EBC40404F2952495
:1048EC00336ABB4202D914F8010B10B901236B6275
:1048FC00F8BD0023EA69194602F00102FDF7E4F85D
:10490C000137EDE7841E0020502B00207FB5124E9E
:10491C00F26AC2B1421C11495208684607F0F0FB1A
:10492C000020FDF70BFCFEF75FFA6846FBF7C6FDAF
:10493C000024054604EBC400AC424FF0010300F127
:10494C00010002DB736204B070BD1DF8041000227C
:10495C00FDF75AFB0134EDE7841E002044D3000818
:10496C0004200721F8B5754B1624C3E907103C2128
:10497C00C3E90F41202183F8441083F8481083F8D1
:10498C00511083F852106E49002299656D4902242A
:10499C0099666D4901250F260A27C3E91B100321CF
:1049AC00DFF8D0E1DFF8D0C1C3F87CE0DFF8CCE170
:1049BC00C3E91744C3F854C09967C3E90072C3E94B
:1049CC000256C3E90922C3E90B551E619A615A6369
:1049DC005A665867C3E920E4DFF8A4E1C3E9224131
:1049EC00C3F890E0DFF89CE1C3E92741C3E925E473
:1049FC00DFF894E1C3E93141C3F8A4E0DFF88CE1BE
:104A0C00C3E93B41C3E92AE4DFF884E1C3E92C4262
:104A1C00C3F8B8E0DFF87CE1C3E93601C3E92FE461
:104A2C00DFF874E1C3E94011C3F8CCE0DFF86CE1C6
:104A3C00C3E934E0DFF868E1C3F8E0E0DFF864E1F3
:104A4C00C3E939E4DFF860E1C3F8F4E0DFF85CE1D6
:104A5C00C3E93EE1DFF858E1C3F808E1DFF854E1BF
:104A6C00C3E94541C3E943E4384CC3E94A01C3F8FF
:104A7C001C41374CC3E94F01C3E94840354CC3E9ED
:104A8C005411C3F83041344CC3E956C5C3E94D4009
:104A9C00324CDFF824C1C3F84441314CC3E95852BD
:104AAC00C3E952412F49304CC3E95E10C3E95A4067
:104ABC00C3E95C05C3E96022C3E962C2C3E97212AF
:104ACC000821C3E976110921C3E978110B21C3E947
:104ADC007C110C21C3E97E110D21C3E980110E213B
:104AEC00DFF8D8C0C3E98211C3E966C2DFF8D0C0D1
:104AFC00C3E96422C3E96822C3E96AC2C3E96C2230
:104B0C00C3E96E40C3E97005C3E97422C3E97A773F
:104B1C00C3E9846603F5067141F8042B01320F2AB0
:104B2C00FAD1C3F85422032210491148C3F8582271
:104B3C0007F022FBBDE8F84004F0C6BE841E00203E
:104B4C00F12100084ED30008852B000885D30008FE
:104B5C004D2300088DD30008D922000879D3000812
:104B6C00753100089DD3000895D30008B3D3000815
:104B7C00E020002053D3000849D300088529000801
:104B8C0058D30008A5270008EAD100087D1F0008AB
:104B9C0060D300088131000866D300080D27000897
:104BAC006FD30008ED25000874D300087B31000892
:104BBC0080D3000831240008FDD00008A6D30008DB
:104BCC00ACD3000838B5044604F03CF808B9012011
:104BDC0038BD552004F0A0F80C48082104F0BCF8AE
:104BEC00442004F099F8002CF1D0002443F2154530
:104BFC0004F064F8013428B9AC42F9D104F022F87D
:104C0C000020E5E7AC42E2D1F8E700BF75090020CF
:104C1C00F8B507460E46154604F014F858B355205F
:104C2C0004F07AF8184C0821184804F095F8BE20C6
:104C3C0004F072F80921204604F062F804F002F83E
:104C4C00134B1A682346222A01D0282A14D15C78E7
:104C5C001A781B79E109C3F3411309333B6004F063
:104C6C0007043160191FC3F10C038C4042FA03F3A3
:104C7C00234301202B60F8BD09233B606378DB09DB
:104C8C0033602378F5E700BF6C090020750900201C
:104C9C0080090020F8B5A0F10905032D064602D9BC
:104CAC0000242046F8BD04F075F803F0CBFF002873
:104CBC00F6D02D4F384604F05AF801213B782B4A98
:104CCC00222B13602A4A0446116001D0282BE8D10C
:104CDC0003F0B8FF0028E4D0552004F01DF8254F50
:104CEC000821214804F038F8BE2004F015F80921F9
:104CFC00384604F005F83B79C3F3411309339E425F
:104D0C00CFD003F09FFF0028CBD0552004F004F83F
:104D1C000821154804F020F84E2003F0FDFF7F20F9
:104D2C0003F0FAFF802003F0F7FF680100F0E000C9
:104D3C0003F0F2FF03F086FF03F084FF0028B0D0ED
:104D4C00552003F0E9FF0821074804F005F8482036
:104D5C0003F0E2FFFA2503F0B1FF08B9013DFAD1E7
:104D6C0003F070FF9DE700BF75090020800900204B
:104D7C00E82000206C0900207FB500F06BFE0024B9
:104D8C0001250B4E44F0A0000122002100950DF1ED
:104D9C000F03306000F0E4FE28B9064B1D60054B94
:104DAC00186804B070BD0234102CEBD1F7E700BFCB
:104DBC00840900208809002013B50B4607490446D6
:104DCC00086848B10648009221460122006800F0AC
:104DDC00C7FEB0FA80F0400902B010BD880900206F
:104DEC00840900202DE9F341124B04461B681BB9C2
:104DFC00002002B0BDE8F081DFF840800E4F85182E
:104E0C000E1AAC424FF0010206EB040301D110461E
:104E1C00EFE72146D8F80000009200F00BFF0028C5
:104E2C00E6D110233A68002AFCD0013B3860F9D156
:104E3C000134E6E788090020EC20002084090020DA
:104E4C0000B591B00B4602460749684607F058F981
:104E5C0001226946054800F04BFC0022044B1A6005
:104E6C0011B05DF804FB00BF62D80008D7E0000861
:104E7C00A40900202DE9F84F6F4E044637686F4D9A
:104E8C00002F4FD06E4FDFF8CC91DFF8B881DFF8F0
:104E9C00CCA197F84C202B6807F14C00002A76D156
:104EAC00DFF8A4E1DFF8C4C1664F7045396860468D
:104EBC00DCF8002012D0DFF89CC1DFF8A0E1DCF8B0
:104ECC0000C0DEF800E0F444DFF898E1DEF800E022
:104EDC00F44403EB010E9644F4454DD1DFF888C140
:104EEC0004F10708DCF800E04FF0000CE1469E45A9
:104EFC0000F38780BCF1000F00D02B6000239C4690
:104F0C0004F1E7058E4500F3858003B13960002379
:104F1C00194604F2C714964500F3848003B102606D
:104F2C0002202FE002214848FBF766FD0221206099
:104F3C004648FBF761FD042160604548FBF75CFDCA
:104F4C00444B042118604448FBF756FD434B0421A5
:104F5C0018604348FBF750FD424B434A1860D4E9B4
:104F6C00000303FB00F11160364A2F6017603F4AC3
:104F7C00176038B1002B5CD000223D48114600F080
:104F8C00B7FB0120336801333360BDE8F88FD9F8E3
:104F9C0000209A420BDDDF2B07DC0221FBF72CFDF6
:104FAC002B685A1C23442A601872023771E7D8F810
:104FBC000030DAF8002093420DDADF2BF5DC022109
:104FCC00FBF71AFDD8F800305A1C2344C8F800200F
:104FDC0083F8E800E9E7DFF894B0224ADBF8003008
:104FEC0012689342E1DADF2BDFDC0221FBF704FDD0
:104FFC00DBF800305A1C2344CBF8002083F8C8019E
:10500C00D3E7DF2B3FF776AF01334FF0010C08F8F5
:10501C0003906CE7DF293FF778AF0131012305F8E6
:10502C0001C06FE7DF2A3FF779AF01320123A154AA
:10503C0071E71846A6E700BFA40900209C090020D0
:10504C00F42000209409002040210020422100205F
:10505C0044210020A00900204821002098090020AC
:10506C004C21002090090020A80900208C09002068
:10507C00D7E0000810B5234B04461A6886B082426C
:10508C003ED01860684606F010FC02A806F0EEFE52
:10509C000121042006F094FD0121042006F090FD6E
:1050AC0001214FF4003006F097FD174B6946174865
:1050BC00009306F0ADFB164B69461448009306F0BE
:1050CC00A7FB0121134806F007FF00234FF44022F1
:1050DC00104802A9CDE90332ADF81430029406F061
:1050EC0071FE01210B4806F0CBFE0A48012240F26A
:1050FC00255106F0D1FE084B01A8019306F0DEF90C
:10510C0006B010BDAC0900200400031800080140D3
:10511C000800034800440040260000010E4B30B448
:10512C001A4619687F29FCD80C4B0D4D1C68C0B26F
:10513C00611C7F29196088BF0021285588BF196020
:10514C0072B613680133136062B6012230BC40F2B0
:10515C002771044806F0A0BE3C0B0020440B002035
:10516C00BC0A00200044004010B5441E14F8010F86
:10517C0000B910BDFFF7D2FFF8E70000024B18682A
:10518C00003818BF01207047B00A002030B50C4B16
:10519C000246186898B10B480B4D01684C1CB4F5CD
:1051AC00807F046008BF0024695C08BF0460C9B23A
:1051BC0072B618680138186062B60120116030BDF3
:1051CC00B00A0020B40A0020B0090020024A13687B
:1051DC00002BFCD1704700BF3C0B002038B540F2CF
:1051EC002551244806F084FED0B140F225512148C7
:1051FC0006F09DFE1F4806F06BFE1F4B1A68FF2A37
:10520C000ED81E4A1E4D1468C0B2611CFF291160D5
:10521C0088BF0021285588BF11601A6801321A60B6
:10522C0040F22771134806F063FE10B340F2277169
:10523C00104806F07CFE134B1A689AB1124A134CB4
:10524C001168481C8028106008BF0020615C08BFF2
:10525C0010601A680748013A1A60C9B2BDE83840B4
:10526C0006F032BE40F22771BDE83840014806F026
:10527C0013BE38BD00440040B00A0020B80A00201C
:10528C00B00900203C0B0020400B0020BC0A002081
:10529C0013B501210420174C06F092FC01A806F06E
:1052AC0004FB154B204601A9019306F0B1FA01212C
:1052BC00042006F085FC01A806F0F7FA0F4B2046F7
:1052CC0001A9019306F0A4FA0121042006F078FC50
:1052DC0001A806F0EAFA0A4B204601A9019306F050
:1052EC0097FA01232361022323611023236102B067
:1052FC0010BD00BF000801400100021002000210A6
:10530C0010000210F7B501F02FF9FFF75FFFFFF760
:10531C0035FFE0B19F4DA04F01A8FFF737FFB0B1AB
:10532C000123019C2B600A2C40F0B78100233A68C2
:10533C009A4EB354002A00F0AD813B6033782E2B8B
:10534C0009D173783BB901240023337000E00024A9
:10535C00204603B0F0BD05229149904806F014FF99
:10536C0030B93F228F49904806F020FF0D24EBE71F
:10537C0005228E49894806F007FF30B93F2289493A
:10538C00894806F013FF0F24DEE70322884983487F
:10539C0006F0FAFE002858D186498048FBF784F8BD
:1053AC00002800F0868105228349844806F0ECFE33
:1053BC00044640B9142282497B4806F0F7FE85F872
:1053CC0060401024C0E705227E497C4806F0DCFED4
:1053DC00044640B908227A49734806F0E7FE85F87E
:1053EC0054401124B0E702227749744806F0CCFEF1
:1053FC00044640B910226B496B4806F0D7FE85F87D
:10540C005C401224A0E7022270496C4806F0BCFEF6
:10541C00044640B910226349634806F0C7FE85F87C
:10542C005C40132490E702226949644806F0ACFE04
:10543C000446002840F02C8110225A495A4806F0A4
:10544C00B5FE85F85C4014247EE7624801F062F8F2
:10545C00524801F05FF8604801F05CF801F084F804
:10546C0002225E494D4806F08FFE00283FF46BAFD8
:10547C0005225B49494806F087FE002800F01B8195
:10548C0002225849454806F07FFE002800F015819D
:10549C0005225549414806F077FE30B9182241499A
:1054AC00414806F083FE18244EE70A224F493B4838
:1054BC0006F06AFE40B90F224D494E4806F076FEC2
:1054CC00012304246B603FE703224B49334806F069
:1054DC005BFE30B91F223949484806F067FE0524A7
:1054EC0032E7052246492D4806F04EFE58B90222F5
:1054FC0044492C4806F048FE18B902230624AB6038
:10550C0022E70123FAE705223F49244806F03CFE36
:10551C0030B90F222349244806F048FE072413E72C
:10552C0008223A491D4806F02FFE28B93F2224498B
:10553C001D4806F03BFE07E70B223549174806F0DD
:10554C0023FE30B93F223349174806F02FFE1524AD
:10555C00FAE606223049114806F016FE044640B918
:10556C0002222E49104806F021FE85F84E400B24ED
:10557C00EAE609222A49094806F006FE04460028F4
:10558C0052D102222749084806F010FE85F84E40F9
:10559C001624D9E6F4200020500C00204C0B0020DF
:1055AC006AD80008510B002040210020DCD80008EC
:1055BC0070D8000874D800087BD800084F0B002066
:1055CC00540B002081D8000887D800088AD800081E
:1055DC008DD8000890D8000892D8000896D80008FA
:1055EC0099D800089FD80008A2D80008A8D80008AD
:1055FC00560B002030210020B3D8000810210020C9
:10560C00B7D80008BDD80008C0D80008C6D8000814
:10561C00CFD80008570B0020DBD80008520B002015
:10562C00E2D80008550B002009222649264806F02E
:10563C00ABFD30B90F222549254806F0B7FD0824EB
:10564C0082E604222349204806F09EFD30B93F2211
:10565C002149224806F0AAFD092475E605222049B5
:10566C00194806F091FD30B93F221E491B4806F03F
:10567C009DFD0C2468E605221B49134806F084FDA9
:10568C0000283FF46EAE19490F48FAF70DFFB0B180
:10569C00FF2459E600F068FF3EE60D2C3FF43CAECB
:1056AC003B68FF2B3FF638AE5A1C3A60064AD4547E
:1056BC0032E6172448E6022446E6032444E60E2488
:1056CC0042E600BFECD800084C0B0020550B002024
:1056DC0000210020F6D80008500B002040210020AB
:1056EC00FBD80008510B00206AD8000801D900082B
:1056FC002DE9F34105460C461AB3304800F00AFF79
:10570C002846FAF7DBFE2F46DFF8BC802E18B7428E
:10571C002FD18CB1202000F0D7FE222000F0D4FE37
:10572C002046FAF7CBFE2646DFF89C802718B742B6
:10573C0031D1222000F0C8FE214800F0EBFE00F031
:10574C0013FF2846FFF710FD5CB12020FFF7E6FCA5
:10575C002220FFF7E3FC2046FFF706FD2220FFF78F
:10576C00DDFC1848FFF700FDFFF730FD02B0BDE887
:10577C00F08117F8012BA2F120035E2B03D8104601
:10578C0000F0A2FEC3E74146684606F0B9FC684645
:10579C0000F0C0FEBBE716F8012BA2F120035E2B34
:1057AC0003D8104600F090FEC1E74146684606F06B
:1057BC00A7FC684600F0AEFEB9E700BF07D90008A9
:1057CC0013D9000837E100080CD90008F7B50125FA
:1057DC000B4C0C4E65613220FBF7D6FC0027256183
:1057EC0035463224376001A8FFF7D0FC0028F8D1E9
:1057FC002B68002BF7D0013C2860F4D103B0F0BD2E
:10580C0000080140F020002030B50024A1B0084D64
:10581C000B460246074901A885F83C406C6006F02F
:10582C006FFC0122214601A8FFF762FF21B030BDB9
:10583C00F42000201ED900080021044B012204484A
:10584C0083F83C105960FFF753BF00BFF4200020D1
:10585C002BD900081025012607B5134C4FF4E13065
:10586C0000F001FFFFF714FD4FF4E130FFF702FCED
:10587C00322065616661FBF787FC4FF4FA70266194
:10588C00FBF782FC256101A8FFF780FC10B10198A1
:10589C0000F01AFE01A800F047FE0028F3D0019892
:1058AC00FFF73CFCEFE700BF0008014008B50B4BCD
:1058BC001A6892B901224FF4E1301A6000F0D3FE5D
:1058CC00074800F027FEFFF7E3FC4FF4E130FFF749
:1058DC00D1FBBDE80840FFF779BF08BD480B00209D
:1058EC002FD900081FB50E4C684606F09FF82046CD
:1058FC0006F018F84FF080630A4A6946CDE9012397
:10590C004FF48043ADF80C30074B20461B680093D6
:10591C0006F022F80121204606F096F804B010BDDE
:10592C00005400400000FFBF540C002010B50A4C7E
:10593C000121204606F0A0F82046012106F0C2F80D
:10594C002046002106F0BEF8204605F0EBFFBDE82E
:10595C001040FFF7C7BF00BF00540040F8B5064623
:10596C000D4606240B4F3146384606F0B7F830B1D9
:10597C002946384606F0B2F808B1012407E0013C8C
:10598C0003D00120FBF700FCEDE7FFF7CFFF20462B
:10599C00F8BD00BF0054004070B505460624094E02
:1059AC002946304606F09AF808B1012407E0013C7C
:1059BC0003D00120FBF7E8FBF2E7FFF7B7FF204627
:1059CC0070BD00BF005400402DE9F04107460D4664
:1059DC001C4801211446984606F042F81A48FFF775
:1059EC00DBFF184E20B3B8F1000F1FD0002130465A
:1059FC0006F04EF813480022F9B206F05AF8134894
:105A0C00FFF7CAFFB8B11248338BFFF7C5FFA8B137
:105A1C00EEB224B10B48C5F3072106F045F809484E
:105A2C00314606F041F80020BDE8F0810121DEE7A7
:105A3C004FF0FF30F8E76FF00100F5E76FF0020070
:105A4C00F2E700BF005400400100001002000010FB
:105A5C00800000102DE9F341384B04461A6882424D
:105A6C0069D01860364805F05DFF0121082006F06A
:105A7C00A7F8344D01A805F018FF334B01A92846AF
:105A8C00019305F0C5FE01A805F00FFF2F4B28462A
:105A9C0001A9019305F0BCFE8021284605F00CFFFE
:105AAC0020B9402301206B61FBF76EFB40270926D0
:105ABC00B846244D0120C5F81080FBF765FB80210A
:105ACC00204805F0F9FE012805D001206F61FBF795
